{
  "address": "0xE3A74784c8cDda3504b12477F41a52429C4A08B1",
  "abi": [
    {
      "inputs": [
        {
          "internalType": "contract IVerifier",
          "name": "_verifier",
          "type": "address"
        },
        {
          "internalType": "string",
          "name": "_question",
          "type": "string"
        }
      ],
      "stateMutability": "nonpayable",
      "type": "constructor"
    },
    {
      "inputs": [
        {
          "internalType": "address",
          "name": "owner",
          "type": "address"
        }
      ],
      "name": "OwnableInvalidOwner",
      "type": "error"
    },
    {
      "inputs": [
        {
          "internalType": "address",
          "name": "account",
          "type": "address"
        }
      ],
      "name": "OwnableUnauthorizedAccount",
      "type": "error"
    },
    {
      "inputs": [
        {
          "internalType": "uint256",
          "name": "commitment",
          "type": "uint256"
        }
      ],
      "name": "Voting__CommitmentAlreadyAdded",
      "type": "error"
    },
    {
      "inputs": [],
      "name": "Voting__InvalidProof",
      "type": "error"
    },
    {
      "inputs": [],
      "name": "Voting__NotAllowedToVote",
      "type": "error"
    },
    {
      "inputs": [
        {
          "internalType": "bytes32",
          "name": "nullifierHash",
          "type": "bytes32"
        }
      ],
      "name": "Voting__NullifierHashAlreadyUsed",
      "type": "error"
    },
    {
      "anonymous": false,
      "inputs": [
        {
          "indexed": false,
          "internalType": "uint256",
          "name": "index",
          "type": "uint256"
        },
        {
          "indexed": false,
          "internalType": "uint256",
          "name": "value",
          "type": "uint256"
        }
      ],
      "name": "NewLeaf",
      "type": "event"
    },
    {
      "anonymous": false,
      "inputs": [
        {
          "indexed": true,
          "internalType": "address",
          "name": "previousOwner",
          "type": "address"
        },
        {
          "indexed": true,
          "internalType": "address",
          "name": "newOwner",
          "type": "address"
        }
      ],
      "name": "OwnershipTransferred",
      "type": "event"
    },
    {
      "anonymous": false,
      "inputs": [
        {
          "indexed": true,
          "internalType": "bytes32",
          "name": "nullifierHash",
          "type": "bytes32"
        },
        {
          "indexed": true,
          "internalType": "address",
          "name": "voter",
          "type": "address"
        },
        {
          "indexed": false,
          "internalType": "bool",
          "name": "vote",
          "type": "bool"
        },
        {
          "indexed": false,
          "internalType": "uint256",
          "name": "timestamp",
          "type": "uint256"
        },
        {
          "indexed": false,
          "internalType": "uint256",
          "name": "totalYes",
          "type": "uint256"
        },
        {
          "indexed": false,
          "internalType": "uint256",
          "name": "totalNo",
          "type": "uint256"
        }
      ],
      "name": "VoteCast",
      "type": "event"
    },
    {
      "inputs": [
        {
          "internalType": "address[]",
          "name": "voters",
          "type": "address[]"
        },
        {
          "internalType": "bool[]",
          "name": "statuses",
          "type": "bool[]"
        }
      ],
      "name": "addVoters",
      "outputs": [],
      "stateMutability": "nonpayable",
      "type": "function"
    },
    {
      "inputs": [],
      "name": "getDepth",
      "outputs": [
        {
          "internalType": "uint256",
          "name": "",
          "type": "uint256"
        }
      ],
      "stateMutability": "view",
      "type": "function"
    },
    {
      "inputs": [
        {
          "internalType": "uint256",
          "name": "index",
          "type": "uint256"
        }
      ],
      "name": "getLeaf",
      "outputs": [
        {
          "internalType": "uint256",
          "name": "",
          "type": "uint256"
        }
      ],
      "stateMutability": "view",
      "type": "function"
    },
    {
      "inputs": [
        {
          "internalType": "uint256",
          "name": "index",
          "type": "uint256"
        }
      ],
      "name": "getNode",
      "outputs": [
        {
          "internalType": "uint256",
          "name": "",
          "type": "uint256"
        }
      ],
      "stateMutability": "view",
      "type": "function"
    },
    {
      "inputs": [],
      "name": "getRoot",
      "outputs": [
        {
          "internalType": "uint256",
          "name": "",
          "type": "uint256"
        }
      ],
      "stateMutability": "view",
      "type": "function"
    },
    {
      "inputs": [],
      "name": "getSize",
      "outputs": [
        {
          "internalType": "uint256",
          "name": "",
          "type": "uint256"
        }
      ],
      "stateMutability": "view",
      "type": "function"
    },
    {
      "inputs": [],
      "name": "i_verifier",
      "outputs": [
        {
          "internalType": "contract IVerifier",
          "name": "",
          "type": "address"
        }
      ],
      "stateMutability": "view",
      "type": "function"
    },
    {
      "inputs": [
        {
          "internalType": "uint256",
          "name": "_commitment",
          "type": "uint256"
        }
      ],
      "name": "insert",
      "outputs": [],
      "stateMutability": "nonpayable",
      "type": "function"
    },
    {
      "inputs": [],
      "name": "noVotes",
      "outputs": [
        {
          "internalType": "uint256",
          "name": "",
          "type": "uint256"
        }
      ],
      "stateMutability": "view",
      "type": "function"
    },
    {
      "inputs": [],
      "name": "owner",
      "outputs": [
        {
          "internalType": "address",
          "name": "",
          "type": "address"
        }
      ],
      "stateMutability": "view",
      "type": "function"
    },
    {
      "inputs": [],
      "name": "question",
      "outputs": [
        {
          "internalType": "string",
          "name": "",
          "type": "string"
        }
      ],
      "stateMutability": "view",
      "type": "function"
    },
    {
      "inputs": [],
      "name": "renounceOwnership",
      "outputs": [],
      "stateMutability": "nonpayable",
      "type": "function"
    },
    {
      "inputs": [
        {
          "internalType": "uint256",
          "name": "",
          "type": "uint256"
        }
      ],
      "name": "s_commitments",
      "outputs": [
        {
          "internalType": "bool",
          "name": "",
          "type": "bool"
        }
      ],
      "stateMutability": "view",
      "type": "function"
    },
    {
      "inputs": [
        {
          "internalType": "bytes32",
          "name": "",
          "type": "bytes32"
        }
      ],
      "name": "s_nullifierHashes",
      "outputs": [
        {
          "internalType": "bool",
          "name": "",
          "type": "bool"
        }
      ],
      "stateMutability": "view",
      "type": "function"
    },
    {
      "inputs": [
        {
          "internalType": "address",
          "name": "",
          "type": "address"
        }
      ],
      "name": "s_voters",
      "outputs": [
        {
          "internalType": "bool",
          "name": "",
          "type": "bool"
        }
      ],
      "stateMutability": "view",
      "type": "function"
    },
    {
      "inputs": [
        {
          "internalType": "address",
          "name": "newOwner",
          "type": "address"
        }
      ],
      "name": "transferOwnership",
      "outputs": [],
      "stateMutability": "nonpayable",
      "type": "function"
    },
    {
      "inputs": [],
      "name": "tree",
      "outputs": [
        {
          "internalType": "uint256",
          "name": "size",
          "type": "uint256"
        },
        {
          "internalType": "uint256",
          "name": "depth",
          "type": "uint256"
        }
      ],
      "stateMutability": "view",
      "type": "function"
    },
    {
      "inputs": [
        {
          "internalType": "bytes",
          "name": "_proof",
          "type": "bytes"
        },
        {
          "internalType": "bytes32",
          "name": "_root",
          "type": "bytes32"
        },
        {
          "internalType": "bytes32",
          "name": "_nullifierHash",
          "type": "bytes32"
        },
        {
          "internalType": "bytes32",
          "name": "_vote",
          "type": "bytes32"
        },
        {
          "internalType": "bytes32",
          "name": "_depth",
          "type": "bytes32"
        }
      ],
      "name": "vote",
      "outputs": [],
      "stateMutability": "nonpayable",
      "type": "function"
    },
    {
      "inputs": [],
      "name": "yesVotes",
      "outputs": [
        {
          "internalType": "uint256",
          "name": "",
          "type": "uint256"
        }
      ],
      "stateMutability": "view",
      "type": "function"
    }
  ],
  "transactionHash": "0xd04bf7c12a0f9885effcdf2f7a3336d06af624a8dc1d61cf463efa49a88908d7",
  "args": [
    "0x57275b39250dB7cf77F98Afb532fE3eA421a43B3",
    "Should we build a new bridge?"
  ],
  "numDeployments": 1,
  "solcInputHash": "00aa2acd532fd6eaa78049d6943bcf24",
  "bytecode": "0x60a060405234801561001057600080fd5b5060405161101838038061101883398101604081905261002f916100e6565b338061005557604051631e4fbdf760e01b81526000600482015260240160405180910390fd5b61005e81610080565b506001600160a01b0382166080526001610078828261025b565b505050610319565b600080546001600160a01b038381166001600160a01b0319831681178455604051919092169283917f8be0079c531659141344cd1fd0a4f28419497f9722a3daafe3b4186f6b6457e09190a35050565b634e487b7160e01b600052604160045260246000fd5b600080604083850312156100f957600080fd5b82516001600160a01b038116811461011057600080fd5b60208401519092506001600160401b0381111561012c57600080fd5b8301601f8101851361013d57600080fd5b80516001600160401b03811115610156576101566100d0565b604051601f8201601f19908116603f011681016001600160401b0381118282101715610184576101846100d0565b60405281815282820160200187101561019c57600080fd5b60005b828110156101bb5760208185018101518383018201520161019f565b506000602083830101528093505050509250929050565b600181811c908216806101e657607f821691505b60208210810361020657634e487b7160e01b600052602260045260246000fd5b50919050565b601f82111561025657806000526020600020601f840160051c810160208510156102335750805b601f840160051c820191505b81811015610253576000815560010161023f565b50505b505050565b81516001600160401b03811115610274576102746100d0565b6102888161028284546101d2565b8461020c565b6020601f8211600181146102bc57600083156102a45750848201515b600019600385901b1c1916600184901b178455610253565b600084815260208120601f198516915b828110156102ec57878501518255602094850194600190920191016102cc565b508482101561030a5786840151600019600387901b60f8161c191681555b50505050600190811b01905550565b608051610cdd61033b6000396000818161027a01526103fd0152610cdd6000f3fe608060405234801561001057600080fd5b50600436106101215760003560e01c8063715018a6116100ad578063de8fa43111610071578063de8fa4311461029c578063f2fde38b146102a4578063fb286c65146102b7578063fd54b228146102c0578063ff29897d146102e357600080fd5b8063715018a61461022c5780638da5cb5b1461023457806390b5561d14610259578063b5b47f421461026c578063db9753a01461027557600080fd5b80633fad9ae0116100f45780633fad9ae0146101a95780634f0f4aa9146101be5780635ca1e165146101de57806365174af8146101e65780636e433ae21461020957600080fd5b80631a18934b146101265780631ac9b6c31461015e57806322e9124814610173578063367506ef146101a1575b600080fd5b610149610134366004610909565b60026020526000908152604090205460ff1681565b60405190151581526020015b60405180910390f35b61017161016c366004610938565b6102f6565b005b610193610181366004610909565b60009081526008602052604090205490565b604051908152602001610155565b600654610193565b6101b1610526565b6040516101559190610a54565b6101936101cc366004610909565b60009081526007602052604090205490565b6101936105b4565b6101496101f4366004610909565b60036020526000908152604090205460ff1681565b610149610217366004610a6e565b60046020526000908152604090205460ff1681565b610171610630565b6000546001600160a01b03165b6040516001600160a01b039091168152602001610155565b610171610267366004610909565b610644565b610193600a5481565b6102417f000000000000000000000000000000000000000000000000000000000000000081565b600554610193565b6101716102b2366004610a6e565b610757565b61019360095481565b6005546006546102ce919082565b60408051928352602083019190915201610155565b6101716102f1366004610ae3565b610795565b60008381526003602052604090205460ff161561032e57604051630c3ffb0960e21b8152600481018490526024015b60405180910390fd5b6000838152600360209081526040808320805460ff191660011790558051600480825260a08201909252918201608080368337019050509050848160008151811061037b5761037b610b54565b602002602001018181525050838160018151811061039b5761039b610b54565b60200260200101818152505082816002815181106103bb576103bb610b54565b60200260200101818152505081816003815181106103db576103db610b54565b6020908102919091010152604051633a94343960e21b81526001600160a01b037f0000000000000000000000000000000000000000000000000000000000000000169063ea50d0e4906104349089908590600401610b6a565b602060405180830381865afa158015610451573d6000803e3d6000fd5b505050506040513d601f19601f820116820180604052508101906104759190610bd2565b6104925760405163e8a02c4b60e01b815260040160405180910390fd5b60001983016104b557600980549060006104ab83610c05565b91905055506104cb565b600a80549060006104c583610c05565b91905055505b600954600a5460408051600187148152426020820152908101929092526060820152339085907fdeb132643171a42da82dca5065904dc8d9ad8cd79074da8797bc9fc046e825889060800160405180910390a3505050505050565b6001805461053390610c1e565b80601f016020809104026020016040519081016040528092919081815260200182805461055f90610c1e565b80156105ac5780601f10610581576101008083540402835291602001916105ac565b820191906000526020600020905b81548152906001019060200180831161058f57829003601f168201915b505050505081565b604051637a3e5e1d60e11b8152600560048201526000907300000000000000000000000000000000000000009063f47cbc3a90602401602060405180830381865af4158015610607573d6000803e3d6000fd5b505050506040513d601f19601f8201168201806040525081019061062b9190610c58565b905090565b61063861088c565b61064260006108b9565b565b60008181526002602052604090205460ff161561067757604051636d6592b960e11b815260048101829052602401610325565b60008181526002602052604090819020805460ff1916600117905551632f85497160e01b8152600560048201526024810182905273000000000000000000000000000000000000000090632f85497190604401602060405180830381865af41580156106e7573d6000803e3d6000fd5b505050506040513d601f19601f8201168201806040525081019061070b9190610c58565b506005547f83086dd2f9a7759c568afebf9730985f32eada5336224c32f153e8089d8f5ea79061073d90600190610c71565b60408051918252602082018490520160405180910390a150565b61075f61088c565b6001600160a01b03811661078957604051631e4fbdf760e01b815260006004820152602401610325565b610792816108b9565b50565b61079d61088c565b8281146107f85760405162461bcd60e51b815260206004820152602360248201527f566f7465727320616e64207374617475736573206c656e677468206d69736d616044820152620e8c6d60eb1b6064820152608401610325565b60005b838110156108855782828281811061081557610815610b54565b905060200201602081019061082a9190610c8a565b6004600087878581811061084057610840610b54565b90506020020160208101906108559190610a6e565b6001600160a01b031681526020810191909152604001600020805460ff19169115159190911790556001016107fb565b5050505050565b6000546001600160a01b031633146106425760405163118cdaa760e01b8152336004820152602401610325565b600080546001600160a01b038381166001600160a01b0319831681178455604051919092169283917f8be0079c531659141344cd1fd0a4f28419497f9722a3daafe3b4186f6b6457e09190a35050565b60006020828403121561091b57600080fd5b5035919050565b634e487b7160e01b600052604160045260246000fd5b600080600080600060a0868803121561095057600080fd5b853567ffffffffffffffff81111561096757600080fd5b8601601f8101881361097857600080fd5b803567ffffffffffffffff81111561099257610992610922565b604051601f8201601f19908116603f0116810167ffffffffffffffff811182821017156109c1576109c1610922565b6040528181528282016020018a10156109d957600080fd5b816020840160208301376000602092820183015299908801359850604088013597606081013597506080013595509350505050565b6000815180845260005b81811015610a3457602081850181015186830182015201610a18565b506000602082860101526020601f19601f83011685010191505092915050565b602081526000610a676020830184610a0e565b9392505050565b600060208284031215610a8057600080fd5b81356001600160a01b0381168114610a6757600080fd5b60008083601f840112610aa957600080fd5b50813567ffffffffffffffff811115610ac157600080fd5b6020830191508360208260051b8501011115610adc57600080fd5b9250929050565b60008060008060408587031215610af957600080fd5b843567ffffffffffffffff811115610b1057600080fd5b610b1c87828801610a97565b909550935050602085013567ffffffffffffffff811115610b3c57600080fd5b610b4887828801610a97565b95989497509550505050565b634e487b7160e01b600052603260045260246000fd5b604081526000610b7d6040830185610a0e565b828103602084015280845180835260208301915060208601925060005b81811015610bb8578351835260209384019390920191600101610b9a565b50909695505050505050565b801515811461079257600080fd5b600060208284031215610be457600080fd5b8151610a6781610bc4565b634e487b7160e01b600052601160045260246000fd5b600060018201610c1757610c17610bef565b5060010190565b600181811c90821680610c3257607f821691505b602082108103610c5257634e487b7160e01b600052602260045260246000fd5b50919050565b600060208284031215610c6a57600080fd5b5051919050565b81810381811115610c8457610c84610bef565b92915050565b600060208284031215610c9c57600080fd5b8135610a6781610bc456fea2646970667358221220df22e3259604db977a28203794073e674843057ecc593dc380ea03f68099ba8d64736f6c634300081b0033",
  "deployedBytecode": "0x608060405234801561001057600080fd5b50600436106101215760003560e01c8063715018a6116100ad578063de8fa43111610071578063de8fa4311461029c578063f2fde38b146102a4578063fb286c65146102b7578063fd54b228146102c0578063ff29897d146102e357600080fd5b8063715018a61461022c5780638da5cb5b1461023457806390b5561d14610259578063b5b47f421461026c578063db9753a01461027557600080fd5b80633fad9ae0116100f45780633fad9ae0146101a95780634f0f4aa9146101be5780635ca1e165146101de57806365174af8146101e65780636e433ae21461020957600080fd5b80631a18934b146101265780631ac9b6c31461015e57806322e9124814610173578063367506ef146101a1575b600080fd5b610149610134366004610909565b60026020526000908152604090205460ff1681565b60405190151581526020015b60405180910390f35b61017161016c366004610938565b6102f6565b005b610193610181366004610909565b60009081526008602052604090205490565b604051908152602001610155565b600654610193565b6101b1610526565b6040516101559190610a54565b6101936101cc366004610909565b60009081526007602052604090205490565b6101936105b4565b6101496101f4366004610909565b60036020526000908152604090205460ff1681565b610149610217366004610a6e565b60046020526000908152604090205460ff1681565b610171610630565b6000546001600160a01b03165b6040516001600160a01b039091168152602001610155565b610171610267366004610909565b610644565b610193600a5481565b6102417f000000000000000000000000000000000000000000000000000000000000000081565b600554610193565b6101716102b2366004610a6e565b610757565b61019360095481565b6005546006546102ce919082565b60408051928352602083019190915201610155565b6101716102f1366004610ae3565b610795565b60008381526003602052604090205460ff161561032e57604051630c3ffb0960e21b8152600481018490526024015b60405180910390fd5b6000838152600360209081526040808320805460ff191660011790558051600480825260a08201909252918201608080368337019050509050848160008151811061037b5761037b610b54565b602002602001018181525050838160018151811061039b5761039b610b54565b60200260200101818152505082816002815181106103bb576103bb610b54565b60200260200101818152505081816003815181106103db576103db610b54565b6020908102919091010152604051633a94343960e21b81526001600160a01b037f0000000000000000000000000000000000000000000000000000000000000000169063ea50d0e4906104349089908590600401610b6a565b602060405180830381865afa158015610451573d6000803e3d6000fd5b505050506040513d601f19601f820116820180604052508101906104759190610bd2565b6104925760405163e8a02c4b60e01b815260040160405180910390fd5b60001983016104b557600980549060006104ab83610c05565b91905055506104cb565b600a80549060006104c583610c05565b91905055505b600954600a5460408051600187148152426020820152908101929092526060820152339085907fdeb132643171a42da82dca5065904dc8d9ad8cd79074da8797bc9fc046e825889060800160405180910390a3505050505050565b6001805461053390610c1e565b80601f016020809104026020016040519081016040528092919081815260200182805461055f90610c1e565b80156105ac5780601f10610581576101008083540402835291602001916105ac565b820191906000526020600020905b81548152906001019060200180831161058f57829003601f168201915b505050505081565b604051637a3e5e1d60e11b81526005600482015260009073__$99c94127c8f73905b08f2d52133ba9abca$__9063f47cbc3a90602401602060405180830381865af4158015610607573d6000803e3d6000fd5b505050506040513d601f19601f8201168201806040525081019061062b9190610c58565b905090565b61063861088c565b61064260006108b9565b565b60008181526002602052604090205460ff161561067757604051636d6592b960e11b815260048101829052602401610325565b60008181526002602052604090819020805460ff1916600117905551632f85497160e01b8152600560048201526024810182905273__$99c94127c8f73905b08f2d52133ba9abca$__90632f85497190604401602060405180830381865af41580156106e7573d6000803e3d6000fd5b505050506040513d601f19601f8201168201806040525081019061070b9190610c58565b506005547f83086dd2f9a7759c568afebf9730985f32eada5336224c32f153e8089d8f5ea79061073d90600190610c71565b60408051918252602082018490520160405180910390a150565b61075f61088c565b6001600160a01b03811661078957604051631e4fbdf760e01b815260006004820152602401610325565b610792816108b9565b50565b61079d61088c565b8281146107f85760405162461bcd60e51b815260206004820152602360248201527f566f7465727320616e64207374617475736573206c656e677468206d69736d616044820152620e8c6d60eb1b6064820152608401610325565b60005b838110156108855782828281811061081557610815610b54565b905060200201602081019061082a9190610c8a565b6004600087878581811061084057610840610b54565b90506020020160208101906108559190610a6e565b6001600160a01b031681526020810191909152604001600020805460ff19169115159190911790556001016107fb565b5050505050565b6000546001600160a01b031633146106425760405163118cdaa760e01b8152336004820152602401610325565b600080546001600160a01b038381166001600160a01b0319831681178455604051919092169283917f8be0079c531659141344cd1fd0a4f28419497f9722a3daafe3b4186f6b6457e09190a35050565b60006020828403121561091b57600080fd5b5035919050565b634e487b7160e01b600052604160045260246000fd5b600080600080600060a0868803121561095057600080fd5b853567ffffffffffffffff81111561096757600080fd5b8601601f8101881361097857600080fd5b803567ffffffffffffffff81111561099257610992610922565b604051601f8201601f19908116603f0116810167ffffffffffffffff811182821017156109c1576109c1610922565b6040528181528282016020018a10156109d957600080fd5b816020840160208301376000602092820183015299908801359850604088013597606081013597506080013595509350505050565b6000815180845260005b81811015610a3457602081850181015186830182015201610a18565b506000602082860101526020601f19601f83011685010191505092915050565b602081526000610a676020830184610a0e565b9392505050565b600060208284031215610a8057600080fd5b81356001600160a01b0381168114610a6757600080fd5b60008083601f840112610aa957600080fd5b50813567ffffffffffffffff811115610ac157600080fd5b6020830191508360208260051b8501011115610adc57600080fd5b9250929050565b60008060008060408587031215610af957600080fd5b843567ffffffffffffffff811115610b1057600080fd5b610b1c87828801610a97565b909550935050602085013567ffffffffffffffff811115610b3c57600080fd5b610b4887828801610a97565b95989497509550505050565b634e487b7160e01b600052603260045260246000fd5b604081526000610b7d6040830185610a0e565b828103602084015280845180835260208301915060208601925060005b81811015610bb8578351835260209384019390920191600101610b9a565b50909695505050505050565b801515811461079257600080fd5b600060208284031215610be457600080fd5b8151610a6781610bc4565b634e487b7160e01b600052601160045260246000fd5b600060018201610c1757610c17610bef565b5060010190565b600181811c90821680610c3257607f821691505b602082108103610c5257634e487b7160e01b600052602260045260246000fd5b50919050565b600060208284031215610c6a57600080fd5b5051919050565b81810381811115610c8457610c84610bef565b92915050565b600060208284031215610c9c57600080fd5b8135610a6781610bc456fea2646970667358221220df22e3259604db977a28203794073e674843057ecc593dc380ea03f68099ba8d64736f6c634300081b0033",
  "libraries": {
    "LeanIMT": "0x0000000000000000000000000000000000000000"
  },
  "devdoc": {
    "errors": {
      "OwnableInvalidOwner(address)": [
        {
          "details": "The owner is not a valid owner account. (eg. `address(0)`)"
        }
      ],
      "OwnableUnauthorizedAccount(address)": [
        {
          "details": "The caller account is not authorized to perform an operation."
        }
      ]
    },
    "kind": "dev",
    "methods": {
      "owner()": {
        "details": "Returns the address of the current owner."
      },
      "renounceOwnership()": {
        "details": "Leaves the contract without owner. It will not be possible to call `onlyOwner` functions. Can only be called by the current owner. NOTE: Renouncing ownership will leave the contract without an owner, thereby disabling any functionality that is only available to the owner."
      },
      "transferOwnership(address)": {
        "details": "Transfers ownership of the contract to a new account (`newOwner`). Can only be called by the current owner."
      }
    },
    "version": 1
  },
  "userdoc": {
    "kind": "user",
    "methods": {},
    "version": 1
  },
  "storageLayout": {
    "storage": [
      {
        "astId": 8,
        "contract": "contracts/Voting.sol:Voting",
        "label": "_owner",
        "offset": 0,
        "slot": "0",
        "type": "t_address"
      },
      {
        "astId": 9650,
        "contract": "contracts/Voting.sol:Voting",
        "label": "question",
        "offset": 0,
        "slot": "1",
        "type": "t_string_storage"
      },
      {
        "astId": 9654,
        "contract": "contracts/Voting.sol:Voting",
        "label": "s_commitments",
        "offset": 0,
        "slot": "2",
        "type": "t_mapping(t_uint256,t_bool)"
      },
      {
        "astId": 9658,
        "contract": "contracts/Voting.sol:Voting",
        "label": "s_nullifierHashes",
        "offset": 0,
        "slot": "3",
        "type": "t_mapping(t_bytes32,t_bool)"
      },
      {
        "astId": 9662,
        "contract": "contracts/Voting.sol:Voting",
        "label": "s_voters",
        "offset": 0,
        "slot": "4",
        "type": "t_mapping(t_address,t_bool)"
      },
      {
        "astId": 9665,
        "contract": "contracts/Voting.sol:Voting",
        "label": "tree",
        "offset": 0,
        "slot": "5",
        "type": "t_struct(LeanIMTData)201_storage"
      },
      {
        "astId": 9667,
        "contract": "contracts/Voting.sol:Voting",
        "label": "yesVotes",
        "offset": 0,
        "slot": "9",
        "type": "t_uint256"
      },
      {
        "astId": 9669,
        "contract": "contracts/Voting.sol:Voting",
        "label": "noVotes",
        "offset": 0,
        "slot": "10",
        "type": "t_uint256"
      }
    ],
    "types": {
      "t_address": {
        "encoding": "inplace",
        "label": "address",
        "numberOfBytes": "20"
      },
      "t_bool": {
        "encoding": "inplace",
        "label": "bool",
        "numberOfBytes": "1"
      },
      "t_bytes32": {
        "encoding": "inplace",
        "label": "bytes32",
        "numberOfBytes": "32"
      },
      "t_mapping(t_address,t_bool)": {
        "encoding": "mapping",
        "key": "t_address",
        "label": "mapping(address => bool)",
        "numberOfBytes": "32",
        "value": "t_bool"
      },
      "t_mapping(t_bytes32,t_bool)": {
        "encoding": "mapping",
        "key": "t_bytes32",
        "label": "mapping(bytes32 => bool)",
        "numberOfBytes": "32",
        "value": "t_bool"
      },
      "t_mapping(t_uint256,t_bool)": {
        "encoding": "mapping",
        "key": "t_uint256",
        "label": "mapping(uint256 => bool)",
        "numberOfBytes": "32",
        "value": "t_bool"
      },
      "t_mapping(t_uint256,t_uint256)": {
        "encoding": "mapping",
        "key": "t_uint256",
        "label": "mapping(uint256 => uint256)",
        "numberOfBytes": "32",
        "value": "t_uint256"
      },
      "t_string_storage": {
        "encoding": "bytes",
        "label": "string",
        "numberOfBytes": "32"
      },
      "t_struct(LeanIMTData)201_storage": {
        "encoding": "inplace",
        "label": "struct LeanIMTData",
        "members": [
          {
            "astId": 190,
            "contract": "contracts/Voting.sol:Voting",
            "label": "size",
            "offset": 0,
            "slot": "0",
            "type": "t_uint256"
          },
          {
            "astId": 192,
            "contract": "contracts/Voting.sol:Voting",
            "label": "depth",
            "offset": 0,
            "slot": "1",
            "type": "t_uint256"
          },
          {
            "astId": 196,
            "contract": "contracts/Voting.sol:Voting",
            "label": "sideNodes",
            "offset": 0,
            "slot": "2",
            "type": "t_mapping(t_uint256,t_uint256)"
          },
          {
            "astId": 200,
            "contract": "contracts/Voting.sol:Voting",
            "label": "leaves",
            "offset": 0,
            "slot": "3",
            "type": "t_mapping(t_uint256,t_uint256)"
          }
        ],
        "numberOfBytes": "128"
      },
      "t_uint256": {
        "encoding": "inplace",
        "label": "uint256",
        "numberOfBytes": "32"
      }
    }
  }
}